{"abi":[{"type":"constructor","inputs":[],"stateMutability":"nonpayable"},{"type":"function","name":"addVote","inputs":[{"name":"option","type":"uint256","internalType":"uint256"}],"outputs":[],"stateMutability":"nonpayable"},{"type":"function","name":"addVoting","inputs":[{"name":"option1","type":"string","internalType":"string"},{"name":"option2","type":"string","internalType":"string"},{"name":"option3","type":"string","internalType":"string"},{"name":"timeToVote","type":"uint256","internalType":"uint256"}],"outputs":[],"stateMutability":"nonpayable"},{"type":"function","name":"currentVoting","inputs":[],"outputs":[{"name":"","type":"uint256","internalType":"uint256"}],"stateMutability":"view"},{"type":"function","name":"getCurrentVoting","inputs":[],"outputs":[{"name":"","type":"tuple","internalType":"struct Voting","components":[{"name":"option1","type":"string","internalType":"string"},{"name":"votes1","type":"uint256","internalType":"uint256"},{"name":"option2","type":"string","internalType":"string"},{"name":"votes2","type":"uint256","internalType":"uint256"},{"name":"option3","type":"string","internalType":"string"},{"name":"votes3","type":"uint256","internalType":"uint256"},{"name":"maxDate","type":"uint256","internalType":"uint256"}]}],"stateMutability":"view"},{"type":"function","name":"votes","inputs":[{"name":"","type":"address","internalType":"address"},{"name":"","type":"uint256","internalType":"uint256"}],"outputs":[{"name":"option","type":"uint256","internalType":"uint256"},{"name":"date","type":"uint256","internalType":"uint256"}],"stateMutability":"view"},{"type":"function","name":"votings","inputs":[{"name":"","type":"uint256","internalType":"uint256"}],"outputs":[{"name":"option1","type":"string","internalType":"string"},{"name":"votes1","type":"uint256","internalType":"uint256"},{"name":"option2","type":"string","internalType":"string"},{"name":"votes2","type":"uint256","internalType":"uint256"},{"name":"option3","type":"string","internalType":"string"},{"name":"votes3","type":"uint256","internalType":"uint256"},{"name":"maxDate","type":"uint256","internalType":"uint256"}],"stateMutability":"view"}],"bytecode":{"object":"0x60806040525f6001553480156012575f5ffd5b505f80546001600160a01b03191633179055610d34806100315f395ff3fe608060405234801561000f575f5ffd5b5060043610610060575f3560e01c80630383badc146100645780631c7bec9d1461007957806340c2b504146100955780639f2524ee146100a8578063a598d03c146100ee578063f1156cdf14610114575b5f5ffd5b6100776100723660046108d0565b610129565b005b61008260015481565b6040519081526020015b60405180910390f35b6100776100a3366004610986565b61033a565b6100d96100b6366004610a1c565b600360209081525f92835260408084209091529082529020805460019091015482565b6040805192835260208301919091520161008c565b6101016100fc3660046108d0565b6104ad565b60405161008c9796959493929190610a7f565b61011c61068c565b60405161008c9190610ada565b6001811015801561013b575060038111155b61017d5760405162461bcd60e51b815260206004820152600e60248201526d24b73b30b634b21037b83a34b7b760911b60448201526064015b60405180910390fd5b60026001548154811061019257610192610b66565b905f5260205f2090600702016006015442106101e35760405162461bcd60e51b815260206004820152601060248201526f159bdd1a5b99c81a5cc818db1bdcd95960821b6044820152606401610174565b335f90815260036020908152604080832060018054855292529091200154156102425760405162461bcd60e51b8152602060048201526011602482015270165bdd48185b1c9958591e481d9bdd1959607a1b6044820152606401610174565b604080518082018252828152426020808301918252335f908152600382528481206001805483529252939093209151825551908201558190036102b75760026001548154811061029457610294610b66565b5f918252602082206001600790920201018054916102b183610b8e565b91905055505b806002036102f7576002600154815481106102d4576102d4610b66565b5f918252602082206003600790920201018054916102f183610b8e565b91905055505b806003036103375760026001548154811061031457610314610b66565b5f9182526020822060056007909202010180549161033183610b8e565b91905055505b50565b5f546001600160a01b031633146103935760405162461bcd60e51b815260206004820152601f60248201527f4f6e6c7920746865206f776e65722063616e20616464206120766f74696e67006044820152606401610174565b600254156103b05760018054905f6103aa83610b8e565b91905055505b6103ec6040518060e00160405280606081526020015f8152602001606081526020015f8152602001606081526020015f81526020015f81525090565b84815260408101849052608081018390526104078242610ba6565b60c0820152600280546001810182555f91909152815182916007027f405787fa12a823e0f2b7631cc41b3ba8828b3321ca811111fa75cd3aa3bb5ace019081906104519082610c43565b5060208201516001820155604082015160028201906104709082610c43565b50606082015160038201556080820151600482019061048f9082610c43565b5060a0820151816005015560c0820151816006015550505050505050565b600281815481106104bc575f80fd5b905f5260205f2090600702015f91509050805f0180546104db90610bbf565b80601f016020809104026020016040519081016040528092919081815260200182805461050790610bbf565b80156105525780601f1061052957610100808354040283529160200191610552565b820191905f5260205f20905b81548152906001019060200180831161053557829003601f168201915b50505050509080600101549080600201805461056d90610bbf565b80601f016020809104026020016040519081016040528092919081815260200182805461059990610bbf565b80156105e45780601f106105bb576101008083540402835291602001916105e4565b820191905f5260205f20905b8154815290600101906020018083116105c757829003601f168201915b5050505050908060030154908060040180546105ff90610bbf565b80601f016020809104026020016040519081016040528092919081815260200182805461062b90610bbf565b80156106765780601f1061064d57610100808354040283529160200191610676565b820191905f5260205f20905b81548152906001019060200180831161065957829003601f168201915b5050505050908060050154908060060154905087565b6106c86040518060e00160405280606081526020015f8152602001606081526020015f8152602001606081526020015f81526020015f81525090565b6002600154815481106106dd576106dd610b66565b905f5260205f2090600702016040518060e00160405290815f8201805461070390610bbf565b80601f016020809104026020016040519081016040528092919081815260200182805461072f90610bbf565b801561077a5780601f106107515761010080835404028352916020019161077a565b820191905f5260205f20905b81548152906001019060200180831161075d57829003601f168201915b505050505081526020016001820154815260200160028201805461079d90610bbf565b80601f01602080910402602001604051908101604052809291908181526020018280546107c990610bbf565b80156108145780601f106107eb57610100808354040283529160200191610814565b820191905f5260205f20905b8154815290600101906020018083116107f757829003601f168201915b505050505081526020016003820154815260200160048201805461083790610bbf565b80601f016020809104026020016040519081016040528092919081815260200182805461086390610bbf565b80156108ae5780601f10610885576101008083540402835291602001916108ae565b820191905f5260205f20905b81548152906001019060200180831161089157829003601f168201915b5050505050815260200160058201548152602001600682015481525050905090565b5f602082840312156108e0575f5ffd5b5035919050565b634e487b7160e01b5f52604160045260245ffd5b5f82601f83011261090a575f5ffd5b813567ffffffffffffffff811115610924576109246108e7565b604051601f8201601f19908116603f0116810167ffffffffffffffff81118282101715610953576109536108e7565b60405281815283820160200185101561096a575f5ffd5b816020850160208301375f918101602001919091529392505050565b5f5f5f5f60808587031215610999575f5ffd5b843567ffffffffffffffff8111156109af575f5ffd5b6109bb878288016108fb565b945050602085013567ffffffffffffffff8111156109d7575f5ffd5b6109e3878288016108fb565b935050604085013567ffffffffffffffff8111156109ff575f5ffd5b610a0b878288016108fb565b949793965093946060013593505050565b5f5f60408385031215610a2d575f5ffd5b82356001600160a01b0381168114610a43575f5ffd5b946020939093013593505050565b5f81518084528060208401602086015e5f602082860101526020601f19601f83011685010191505092915050565b60e081525f610a9160e083018a610a51565b8860208401528281036040840152610aa98189610a51565b90508660608401528281036080840152610ac38187610a51565b60a0840195909552505060c0015295945050505050565b602081525f825160e06020840152610af6610100840182610a51565b9050602084015160408401526040840151601f19848303016060850152610b1d8282610a51565b915050606084015160808401526080840151601f198483030160a0850152610b458282610a51565b91505060a084015160c084015260c084015160e08401528091505092915050565b634e487b7160e01b5f52603260045260245ffd5b634e487b7160e01b5f52601160045260245ffd5b5f60018201610b9f57610b9f610b7a565b5060010190565b80820180821115610bb957610bb9610b7a565b92915050565b600181811c90821680610bd357607f821691505b602082108103610bf157634e487b7160e01b5f52602260045260245ffd5b50919050565b601f821115610c3e57805f5260205f20601f840160051c81016020851015610c1c5750805b601f840160051c820191505b81811015610c3b575f8155600101610c28565b50505b505050565b815167ffffffffffffffff811115610c5d57610c5d6108e7565b610c7181610c6b8454610bbf565b84610bf7565b6020601f821160018114610ca3575f8315610c8c5750848201515b5f19600385901b1c1916600184901b178455610c3b565b5f84815260208120601f198516915b82811015610cd25787850151825560209485019460019092019101610cb2565b5084821015610cef57868401515f19600387901b60f8161c191681555b50505050600190811b0190555056fea26469706673582212203362a520a0733727737589b481783968976b1af7456501c9d3e401e72fa9124064736f6c634300081c0033","linkReferences":{}},"methodIdentifiers":{"addVote(uint256)":"0383badc","addVoting(string,string,string,uint256)":"40c2b504","currentVoting()":"1c7bec9d","getCurrentVoting()":"f1156cdf","votes(address,uint256)":"9f2524ee","votings(uint256)":"a598d03c"},"id":1}